{
  "contractName": "Ast",
  "abi": [
    {
      "constant": true,
      "inputs": [],
      "name": "owner",
      "outputs": [
        {
          "internalType": "address",
          "name": "",
          "type": "address"
        }
      ],
      "payable": false,
      "stateMutability": "view",
      "type": "function"
    },
    {
      "constant": false,
      "inputs": [
        {
          "internalType": "uint256",
          "name": "nfcId",
          "type": "uint256"
        },
        {
          "internalType": "uint256",
          "name": "brandId",
          "type": "uint256"
        },
        {
          "internalType": "uint256",
          "name": "productId",
          "type": "uint256"
        },
        {
          "internalType": "uint256",
          "name": "editionId",
          "type": "uint256"
        },
        {
          "internalType": "string",
          "name": "manufactureDate",
          "type": "string"
        },
        {
          "internalType": "bool",
          "name": "isLimited",
          "type": "bool"
        },
        {
          "internalType": "uint256",
          "name": "ownerId",
          "type": "uint256"
        }
      ],
      "name": "registerProductInfo",
      "outputs": [],
      "payable": false,
      "stateMutability": "nonpayable",
      "type": "function"
    },
    {
      "constant": true,
      "inputs": [],
      "name": "allProductInfo",
      "outputs": [
        {
          "components": [
            {
              "internalType": "uint256",
              "name": "nfcId",
              "type": "uint256"
            },
            {
              "internalType": "uint256",
              "name": "brandId",
              "type": "uint256"
            },
            {
              "internalType": "uint256",
              "name": "productId",
              "type": "uint256"
            },
            {
              "internalType": "uint256",
              "name": "editionId",
              "type": "uint256"
            },
            {
              "internalType": "string",
              "name": "manufactureDate",
              "type": "string"
            },
            {
              "internalType": "bool",
              "name": "isLimited",
              "type": "bool"
            },
            {
              "internalType": "uint256",
              "name": "ownerId",
              "type": "uint256"
            }
          ],
          "internalType": "struct Ast.ProductInfo[]",
          "name": "",
          "type": "tuple[]"
        }
      ],
      "payable": false,
      "stateMutability": "view",
      "type": "function"
    },
    {
      "constant": false,
      "inputs": [
        {
          "internalType": "uint256",
          "name": "_number",
          "type": "uint256"
        },
        {
          "internalType": "uint256",
          "name": "new_ownerId",
          "type": "uint256"
        }
      ],
      "name": "changeOwnership",
      "outputs": [],
      "payable": false,
      "stateMutability": "nonpayable",
      "type": "function"
    }
  ],
  "bytecode": "0x608060405233600160006101000a81548173ffffffffffffffffffffffffffffffffffffffff021916908373ffffffffffffffffffffffffffffffffffffffff16021790555034801561005157600080fd5b50610a8b806100616000396000f3fe608060405234801561001057600080fd5b506004361061004c5760003560e01c8063147944ed146100515780638da5cb5b1461006d578063b78de5b31461008b578063e27c9666146100a7575b600080fd5b61006b60048036036100669190810190610580565b6100c5565b005b61007561017c565b6040516100829190610863565b60405180910390f35b6100a560048036036100a091908101906105bc565b6101a2565b005b6100af61030f565b6040516100bc919061087e565b60405180910390f35b600160009054906101000a900473ffffffffffffffffffffffffffffffffffffffff1673ffffffffffffffffffffffffffffffffffffffff163373ffffffffffffffffffffffffffffffffffffffff1614610155576040517f08c379a000000000000000000000000000000000000000000000000000000000815260040161014c906108a0565b60405180910390fd5b806000838154811061016357fe5b9060005260206000209060070201600601819055505050565b600160009054906101000a900473ffffffffffffffffffffffffffffffffffffffff1681565b600160009054906101000a900473ffffffffffffffffffffffffffffffffffffffff1673ffffffffffffffffffffffffffffffffffffffff163373ffffffffffffffffffffffffffffffffffffffff1614610232576040517f08c379a0000000000000000000000000000000000000000000000000000000008152600401610229906108a0565b60405180910390fd5b60006040518060e00160405280898152602001888152602001878152602001868152602001858152602001841515815260200183815250908060018154018082558091505090600182039060005260206000209060070201600090919290919091506000820151816000015560208201518160010155604082015181600201556060820151816003015560808201518160040190805190602001906102d892919061045d565b5060a08201518160050160006101000a81548160ff02191690831515021790555060c0820151816006015550505050505050505050565b60606000805480602002602001604051908101604052809291908181526020016000905b8282101561045457838290600052602060002090600702016040518060e001604052908160008201548152602001600182015481526020016002820154815260200160038201548152602001600482018054600181600116156101000203166002900480601f0160208091040260200160405190810160405280929190818152602001828054600181600116156101000203166002900480156104175780601f106103ec57610100808354040283529160200191610417565b820191906000526020600020905b8154815290600101906020018083116103fa57829003601f168201915b505050505081526020016005820160009054906101000a900460ff1615151515815260200160068201548152505081526020019060010190610333565b50505050905090565b828054600181600116156101000203166002900490600052602060002090601f016020900481019282601f1061049e57805160ff19168380011785556104cc565b828001600101855582156104cc579182015b828111156104cb5782518255916020019190600101906104b0565b5b5090506104d991906104dd565b5090565b6104ff91905b808211156104fb5760008160009055506001016104e3565b5090565b90565b60008135905061051181610a1a565b92915050565b600082601f83011261052857600080fd5b813561053b610536826108ed565b6108c0565b9150808252602083016020830185838301111561055757600080fd5b6105628382846109c7565b50505092915050565b60008135905061057a81610a31565b92915050565b6000806040838503121561059357600080fd5b60006105a18582860161056b565b92505060206105b28582860161056b565b9150509250929050565b600080600080600080600060e0888a0312156105d757600080fd5b60006105e58a828b0161056b565b97505060206105f68a828b0161056b565b96505060406106078a828b0161056b565b95505060606106188a828b0161056b565b945050608088013567ffffffffffffffff81111561063557600080fd5b6106418a828b01610517565b93505060a06106528a828b01610502565b92505060c06106638a828b0161056b565b91505092959891949750929550565b600061067e83836107b8565b905092915050565b61068f8161097f565b82525050565b60006106a082610929565b6106aa818561094c565b9350836020820285016106bc85610919565b8060005b858110156106f857848403895281516106d98582610672565b94506106e48361093f565b925060208a019950506001810190506106c0565b50829750879550505050505092915050565b61071381610991565b82525050565b600061072482610934565b61072e818561095d565b935061073e8185602086016109d6565b61074781610a09565b840191505092915050565b600061075f60338361096e565b91507f546869732066756e6374696f6e206973207265737472696374656420746f207460008301527f686520636f6e74726163742773206f776e6572000000000000000000000000006020830152604082019050919050565b600060e0830160008301516107d06000860182610854565b5060208301516107e36020860182610854565b5060408301516107f66040860182610854565b5060608301516108096060860182610854565b50608083015184820360808601526108218282610719565b91505060a083015161083660a086018261070a565b5060c083015161084960c0860182610854565b508091505092915050565b61085d816109bd565b82525050565b60006020820190506108786000830184610686565b92915050565b600060208201905081810360008301526108988184610695565b905092915050565b600060208201905081810360008301526108b981610752565b9050919050565b6000604051905081810181811067ffffffffffffffff821117156108e357600080fd5b8060405250919050565b600067ffffffffffffffff82111561090457600080fd5b601f19601f8301169050602081019050919050565b6000819050602082019050919050565b600081519050919050565b600081519050919050565b6000602082019050919050565b600082825260208201905092915050565b600082825260208201905092915050565b600082825260208201905092915050565b600061098a8261099d565b9050919050565b60008115159050919050565b600073ffffffffffffffffffffffffffffffffffffffff82169050919050565b6000819050919050565b82818337600083830152505050565b60005b838110156109f45780820151818401526020810190506109d9565b83811115610a03576000848401525b50505050565b6000601f19601f8301169050919050565b610a2381610991565b8114610a2e57600080fd5b50565b610a3a816109bd565b8114610a4557600080fd5b5056fea365627a7a7231582011b77cfbc00cb993e9232442a91f2ace26187abafc07c46a704d166752bbf4f36c6578706572696d656e74616cf564736f6c63430005100040",
  "source": "// SPDX-License-Identifier: MIT\npragma solidity >=0.4.22 <0.9.0;\npragma experimental ABIEncoderV2;\n\ncontract Ast {\n  struct ProductInfo {\n    uint256 nfcId;\n    uint256 brandId;\n    uint256 productId;\n    uint256 editionId;\n    string manufactureDate;\n    bool isLimited;\n    uint256 ownerId;\n  }\n\n  ProductInfo[] products;\n  address public owner = msg.sender;\n\n  modifier onlyOwner() {\n    require(\n      msg.sender == owner,\n      \"This function is restricted to the contract's owner\"\n    );\n    _;\n  }\n\n  function registerProductInfo(\n    uint256 nfcId,\n    uint256 brandId,\n    uint256 productId,\n    uint256 editionId,\n    string memory manufactureDate,\n    bool isLimited,\n    uint256 ownerId\n  ) public onlyOwner() {\n    products.push(\n      ProductInfo(nfcId, brandId, productId, editionId, manufactureDate, isLimited, ownerId)\n      );\n  }\n\n  function allProductInfo() public view returns(ProductInfo[] memory) {\n    return products;\n  }\n\n  function changeOwnership(\n    uint256 _number,\n    uint256 new_ownerId\n  ) public onlyOwner() {\n    products[_number].ownerId = new_ownerId;\n  }\n}",
  "sourcePath": "/root/Ast/contracts/Ast.sol",
  "compiler": {
    "name": "solc",
    "version": "0.5.16+commit.9c3226ce.Emscripten.clang"
  },
  "schemaVersion": "3.3.4",
  "updatedAt": "2021-05-17T01:44:30.885Z",
  "networkType": "ethereum",
  "devdoc": {
    "methods": {}
  },
  "userdoc": {
    "methods": {}
  }
}