{
  "contractName": "Ast",
  "abi": [
    {
      "constant": true,
      "inputs": [],
      "name": "owner",
      "outputs": [
        {
          "internalType": "address",
          "name": "",
          "type": "address"
        }
      ],
      "payable": false,
      "stateMutability": "view",
      "type": "function"
    },
    {
      "constant": false,
      "inputs": [
        {
          "internalType": "uint256",
          "name": "nfcId",
          "type": "uint256"
        },
        {
          "internalType": "bytes32",
          "name": "brandId",
          "type": "bytes32"
        },
        {
          "internalType": "bytes32",
          "name": "productId",
          "type": "bytes32"
        },
        {
          "internalType": "bytes32",
          "name": "editionId",
          "type": "bytes32"
        },
        {
          "internalType": "bytes32",
          "name": "manufactureDate",
          "type": "bytes32"
        },
        {
          "internalType": "bool",
          "name": "isLimited",
          "type": "bool"
        },
        {
          "internalType": "bool",
          "name": "isAppeared",
          "type": "bool"
        },
        {
          "internalType": "uint256",
          "name": "ownerId",
          "type": "uint256"
        }
      ],
      "name": "registerProductInfo",
      "outputs": [],
      "payable": false,
      "stateMutability": "nonpayable",
      "type": "function"
    },
    {
      "constant": true,
      "inputs": [],
      "name": "allProductInfo",
      "outputs": [
        {
          "components": [
            {
              "internalType": "uint256",
              "name": "nfcId",
              "type": "uint256"
            },
            {
              "internalType": "bytes32",
              "name": "brandId",
              "type": "bytes32"
            },
            {
              "internalType": "bytes32",
              "name": "productId",
              "type": "bytes32"
            },
            {
              "internalType": "bytes32",
              "name": "editionId",
              "type": "bytes32"
            },
            {
              "internalType": "bytes32",
              "name": "manufactureDate",
              "type": "bytes32"
            },
            {
              "internalType": "bool",
              "name": "isLimited",
              "type": "bool"
            },
            {
              "internalType": "bool",
              "name": "isAppeared",
              "type": "bool"
            },
            {
              "internalType": "uint256",
              "name": "ownerId",
              "type": "uint256"
            }
          ],
          "internalType": "struct Ast.ProductInfo[]",
          "name": "",
          "type": "tuple[]"
        }
      ],
      "payable": false,
      "stateMutability": "view",
      "type": "function"
    },
    {
      "constant": false,
      "inputs": [
        {
          "internalType": "uint256",
          "name": "_number",
          "type": "uint256"
        },
        {
          "internalType": "uint256",
          "name": "new_ownerId",
          "type": "uint256"
        }
      ],
      "name": "changeOwnership",
      "outputs": [],
      "payable": false,
      "stateMutability": "nonpayable",
      "type": "function"
    }
  ],
  "bytecode": "0x608060405233600160006101000a81548173ffffffffffffffffffffffffffffffffffffffff021916908373ffffffffffffffffffffffffffffffffffffffff16021790555034801561005157600080fd5b50610861806100616000396000f3fe608060405234801561001057600080fd5b506004361061004c5760003560e01c8063147944ed146100515780638da5cb5b1461006d578063e27c96661461008b578063f5227e4a146100a9575b600080fd5b61006b600480360361006691908101906104e9565b6100c5565b005b61007561017c565b60405161008291906106e0565b60405180910390f35b6100936101a2565b6040516100a091906106fb565b60405180910390f35b6100c360048036036100be9190810190610437565b610274565b005b600160009054906101000a900473ffffffffffffffffffffffffffffffffffffffff1673ffffffffffffffffffffffffffffffffffffffff163373ffffffffffffffffffffffffffffffffffffffff1614610155576040517f08c379a000000000000000000000000000000000000000000000000000000000815260040161014c9061071d565b60405180910390fd5b806000838154811061016357fe5b9060005260206000209060070201600601819055505050565b600160009054906101000a900473ffffffffffffffffffffffffffffffffffffffff1681565b60606000805480602002602001604051908101604052809291908181526020016000905b8282101561026b57838290600052602060002090600702016040518061010001604052908160008201548152602001600182015481526020016002820154815260200160038201548152602001600482015481526020016005820160009054906101000a900460ff161515151581526020016005820160019054906101000a900460ff16151515158152602001600682015481525050815260200190600101906101c6565b50505050905090565b600160009054906101000a900473ffffffffffffffffffffffffffffffffffffffff1673ffffffffffffffffffffffffffffffffffffffff163373ffffffffffffffffffffffffffffffffffffffff1614610304576040517f08c379a00000000000000000000000000000000000000000000000000000000081526004016102fb9061071d565b60405180910390fd5b60006040518061010001604052808a8152602001898152602001888152602001878152602001868152602001851515815260200184151581526020018381525090806001815401808255809150509060018203906000526020600020906007020160009091929091909150600082015181600001556020820151816001015560408201518160020155606082015181600301556080820151816004015560a08201518160050160006101000a81548160ff02191690831515021790555060c08201518160050160016101000a81548160ff02191690831515021790555060e082015181600601555050505050505050505050565b600081359050610407816107d9565b92915050565b60008135905061041c816107f0565b92915050565b60008135905061043181610807565b92915050565b600080600080600080600080610100898b03121561045457600080fd5b60006104628b828c01610422565b98505060206104738b828c0161040d565b97505060406104848b828c0161040d565b96505060606104958b828c0161040d565b95505060806104a68b828c0161040d565b94505060a06104b78b828c016103f8565b93505060c06104c88b828c016103f8565b92505060e06104d98b828c01610422565b9150509295985092959890939650565b600080604083850312156104fc57600080fd5b600061050a85828601610422565b925050602061051b85828601610422565b9150509250929050565b6000610531838361062f565b6101008301905092915050565b61054781610787565b82525050565b60006105588261074d565b6105628185610765565b935061056d8361073d565b8060005b8381101561059e5781516105858882610525565b975061059083610758565b925050600181019050610571565b5085935050505092915050565b6105b481610799565b82525050565b6105c3816107a5565b82525050565b60006105d6603383610776565b91507f546869732066756e6374696f6e206973207265737472696374656420746f207460008301527f686520636f6e74726163742773206f776e6572000000000000000000000000006020830152604082019050919050565b6101008201600082015161064660008501826106d1565b50602082015161065960208501826105ba565b50604082015161066c60408501826105ba565b50606082015161067f60608501826105ba565b50608082015161069260808501826105ba565b5060a08201516106a560a08501826105ab565b5060c08201516106b860c08501826105ab565b5060e08201516106cb60e08501826106d1565b50505050565b6106da816107cf565b82525050565b60006020820190506106f5600083018461053e565b92915050565b60006020820190508181036000830152610715818461054d565b905092915050565b60006020820190508181036000830152610736816105c9565b9050919050565b6000819050602082019050919050565b600081519050919050565b6000602082019050919050565b600082825260208201905092915050565b600082825260208201905092915050565b6000610792826107af565b9050919050565b60008115159050919050565b6000819050919050565b600073ffffffffffffffffffffffffffffffffffffffff82169050919050565b6000819050919050565b6107e281610799565b81146107ed57600080fd5b50565b6107f9816107a5565b811461080457600080fd5b50565b610810816107cf565b811461081b57600080fd5b5056fea365627a7a7231582079241852499b197a329410530bebe94082d3764ba7062cfa223e291f99e7f1f56c6578706572696d656e74616cf564736f6c63430005100040",
  "source": "// SPDX-License-Identifier: MIT\npragma solidity >=0.4.22 <0.9.0;\npragma experimental ABIEncoderV2;\n\ncontract Ast {\n  struct ProductInfo {\n    uint256 nfcId;\n    bytes32 brandId;\n    bytes32 productId;\n    bytes32 editionId;\n    bytes32 manufactureDate;\n    bool isLimited;\n    bool isAppeared;\n    uint256 ownerId;\n  }\n\n  ProductInfo[] products;\n  address public owner = msg.sender;\n\n  modifier onlyOwner() {\n    require(\n      msg.sender == owner,\n      \"This function is restricted to the contract's owner\"\n    );\n    _;\n  }\n\n  function registerProductInfo(\n    uint256 nfcId,\n    bytes32 brandId,\n    bytes32 productId,\n    bytes32 editionId,\n    bytes32 manufactureDate,\n    bool isLimited,\n    bool isAppeared,\n    uint256 ownerId\n  ) public onlyOwner() {\n    products.push(\n      ProductInfo(nfcId, brandId, productId, editionId, manufactureDate, isLimited, isAppeared, ownerId)\n      );\n  }\n\n  function allProductInfo() public view returns(ProductInfo[] memory) {\n    return products;\n  }\n\n  function changeOwnership(\n    uint256 _number,\n    uint256 new_ownerId\n  ) public onlyOwner() {\n    products[_number].ownerId = new_ownerId;\n  }\n}",
  "sourcePath": "/root/Ast/contracts/Ast.sol",
  "compiler": {
    "name": "solc",
    "version": "0.5.16+commit.9c3226ce.Emscripten.clang"
  },
  "schemaVersion": "3.3.4",
  "updatedAt": "2021-05-29T05:42:10.373Z",
  "networkType": "ethereum",
  "devdoc": {
    "methods": {}
  },
  "userdoc": {
    "methods": {}
  }
}