{
  "contractName": "Logic",
  "abi": [
    {
      "inputs": [],
      "payable": false,
      "stateMutability": "nonpayable",
      "type": "constructor"
    },
    {
      "anonymous": false,
      "inputs": [
        {
          "indexed": true,
          "internalType": "address",
          "name": "owner",
          "type": "address"
        },
        {
          "indexed": true,
          "internalType": "address",
          "name": "approved",
          "type": "address"
        },
        {
          "indexed": true,
          "internalType": "uint256",
          "name": "tokenId",
          "type": "uint256"
        }
      ],
      "name": "Approval",
      "type": "event"
    },
    {
      "anonymous": false,
      "inputs": [
        {
          "indexed": true,
          "internalType": "address",
          "name": "owner",
          "type": "address"
        },
        {
          "indexed": true,
          "internalType": "address",
          "name": "operator",
          "type": "address"
        },
        {
          "indexed": false,
          "internalType": "bool",
          "name": "approved",
          "type": "bool"
        }
      ],
      "name": "ApprovalForAll",
      "type": "event"
    },
    {
      "anonymous": false,
      "inputs": [
        {
          "indexed": true,
          "internalType": "address",
          "name": "from",
          "type": "address"
        },
        {
          "indexed": true,
          "internalType": "address",
          "name": "to",
          "type": "address"
        },
        {
          "indexed": true,
          "internalType": "uint256",
          "name": "tokenId",
          "type": "uint256"
        }
      ],
      "name": "Transfer",
      "type": "event"
    },
    {
      "constant": false,
      "inputs": [
        {
          "internalType": "address",
          "name": "to",
          "type": "address"
        },
        {
          "internalType": "uint256",
          "name": "tokenId",
          "type": "uint256"
        }
      ],
      "name": "approve",
      "outputs": [],
      "payable": false,
      "stateMutability": "nonpayable",
      "type": "function"
    },
    {
      "constant": true,
      "inputs": [
        {
          "internalType": "address",
          "name": "owner",
          "type": "address"
        }
      ],
      "name": "balanceOf",
      "outputs": [
        {
          "internalType": "uint256",
          "name": "",
          "type": "uint256"
        }
      ],
      "payable": false,
      "stateMutability": "view",
      "type": "function"
    },
    {
      "constant": true,
      "inputs": [
        {
          "internalType": "uint256",
          "name": "tokenId",
          "type": "uint256"
        }
      ],
      "name": "getApproved",
      "outputs": [
        {
          "internalType": "address",
          "name": "",
          "type": "address"
        }
      ],
      "payable": false,
      "stateMutability": "view",
      "type": "function"
    },
    {
      "constant": true,
      "inputs": [
        {
          "internalType": "address",
          "name": "owner",
          "type": "address"
        },
        {
          "internalType": "address",
          "name": "operator",
          "type": "address"
        }
      ],
      "name": "isApprovedForAll",
      "outputs": [
        {
          "internalType": "bool",
          "name": "",
          "type": "bool"
        }
      ],
      "payable": false,
      "stateMutability": "view",
      "type": "function"
    },
    {
      "constant": true,
      "inputs": [],
      "name": "owner",
      "outputs": [
        {
          "internalType": "address",
          "name": "",
          "type": "address"
        }
      ],
      "payable": false,
      "stateMutability": "view",
      "type": "function"
    },
    {
      "constant": true,
      "inputs": [
        {
          "internalType": "uint256",
          "name": "tokenId",
          "type": "uint256"
        }
      ],
      "name": "ownerOf",
      "outputs": [
        {
          "internalType": "address",
          "name": "",
          "type": "address"
        }
      ],
      "payable": false,
      "stateMutability": "view",
      "type": "function"
    },
    {
      "constant": false,
      "inputs": [
        {
          "internalType": "address",
          "name": "from",
          "type": "address"
        },
        {
          "internalType": "address",
          "name": "to",
          "type": "address"
        },
        {
          "internalType": "uint256",
          "name": "tokenId",
          "type": "uint256"
        }
      ],
      "name": "safeTransferFrom",
      "outputs": [],
      "payable": false,
      "stateMutability": "nonpayable",
      "type": "function"
    },
    {
      "constant": false,
      "inputs": [
        {
          "internalType": "address",
          "name": "from",
          "type": "address"
        },
        {
          "internalType": "address",
          "name": "to",
          "type": "address"
        },
        {
          "internalType": "uint256",
          "name": "tokenId",
          "type": "uint256"
        },
        {
          "internalType": "bytes",
          "name": "_data",
          "type": "bytes"
        }
      ],
      "name": "safeTransferFrom",
      "outputs": [],
      "payable": false,
      "stateMutability": "nonpayable",
      "type": "function"
    },
    {
      "constant": false,
      "inputs": [
        {
          "internalType": "address",
          "name": "to",
          "type": "address"
        },
        {
          "internalType": "bool",
          "name": "approved",
          "type": "bool"
        }
      ],
      "name": "setApprovalForAll",
      "outputs": [],
      "payable": false,
      "stateMutability": "nonpayable",
      "type": "function"
    },
    {
      "constant": true,
      "inputs": [
        {
          "internalType": "bytes4",
          "name": "interfaceId",
          "type": "bytes4"
        }
      ],
      "name": "supportsInterface",
      "outputs": [
        {
          "internalType": "bool",
          "name": "",
          "type": "bool"
        }
      ],
      "payable": false,
      "stateMutability": "view",
      "type": "function"
    },
    {
      "constant": false,
      "inputs": [
        {
          "internalType": "address",
          "name": "from",
          "type": "address"
        },
        {
          "internalType": "address",
          "name": "to",
          "type": "address"
        },
        {
          "internalType": "uint256",
          "name": "tokenId",
          "type": "uint256"
        }
      ],
      "name": "transferFrom",
      "outputs": [],
      "payable": false,
      "stateMutability": "nonpayable",
      "type": "function"
    },
    {
      "constant": false,
      "inputs": [
        {
          "internalType": "uint256",
          "name": "nfcId",
          "type": "uint256"
        },
        {
          "internalType": "bytes32",
          "name": "brandId",
          "type": "bytes32"
        },
        {
          "internalType": "bytes32",
          "name": "productId",
          "type": "bytes32"
        },
        {
          "internalType": "bytes32",
          "name": "editionId",
          "type": "bytes32"
        },
        {
          "internalType": "bytes32",
          "name": "manufactureDate",
          "type": "bytes32"
        },
        {
          "internalType": "bool",
          "name": "isLimited",
          "type": "bool"
        },
        {
          "internalType": "bool",
          "name": "isAppeared",
          "type": "bool"
        },
        {
          "internalType": "uint256",
          "name": "ownerId",
          "type": "uint256"
        }
      ],
      "name": "registerProductInfo",
      "outputs": [],
      "payable": false,
      "stateMutability": "nonpayable",
      "type": "function"
    },
    {
      "constant": true,
      "inputs": [],
      "name": "allProductInfo",
      "outputs": [
        {
          "components": [
            {
              "internalType": "uint256",
              "name": "nfcId",
              "type": "uint256"
            },
            {
              "internalType": "bytes32",
              "name": "brandId",
              "type": "bytes32"
            },
            {
              "internalType": "bytes32",
              "name": "productId",
              "type": "bytes32"
            },
            {
              "internalType": "bytes32",
              "name": "editionId",
              "type": "bytes32"
            },
            {
              "internalType": "bytes32",
              "name": "manufactureDate",
              "type": "bytes32"
            },
            {
              "internalType": "bool",
              "name": "isLimited",
              "type": "bool"
            },
            {
              "internalType": "bool",
              "name": "isAppeared",
              "type": "bool"
            },
            {
              "internalType": "uint256",
              "name": "ownerId",
              "type": "uint256"
            }
          ],
          "internalType": "struct Logic.ProductInfo[]",
          "name": "",
          "type": "tuple[]"
        }
      ],
      "payable": false,
      "stateMutability": "view",
      "type": "function"
    },
    {
      "constant": false,
      "inputs": [
        {
          "internalType": "uint256",
          "name": "_number",
          "type": "uint256"
        },
        {
          "internalType": "uint256",
          "name": "new_ownerId",
          "type": "uint256"
        }
      ],
      "name": "changeOwnership",
      "outputs": [],
      "payable": false,
      "stateMutability": "nonpayable",
      "type": "function"
    }
  ],
  "bytecode": "0x60806040523480156200001157600080fd5b506200002a6301ffc9a760e01b6200008960201b60201c565b620000426380ac58cd60e01b6200008960201b60201c565b33600660006101000a81548173ffffffffffffffffffffffffffffffffffffffff021916908373ffffffffffffffffffffffffffffffffffffffff160217905550620001d6565b63ffffffff60e01b817bffffffffffffffffffffffffffffffffffffffffffffffffffffffff19161415620000f5576040517f08c379a0000000000000000000000000000000000000000000000000000000008152600401620000ec90620001a3565b60405180910390fd5b6001600080837bffffffffffffffffffffffffffffffffffffffffffffffffffffffff19167bffffffffffffffffffffffffffffffffffffffffffffffffffffffff1916815260200190815260200160002060006101000a81548160ff02191690831515021790555050565b600062000170601b83620001c5565b91507f4b495031333a20696e76616c696420696e7465726661636520696400000000006000830152602082019050919050565b60006020820190508181036000830152620001be8162000161565b9050919050565b600082825260208201905092915050565b61263580620001e66000396000f3fe608060405234801561001057600080fd5b50600436106100ea5760003560e01c806370a082311161008c578063b88d4fde11610066578063b88d4fde14610259578063e27c966614610275578063e985e9c514610293578063f5227e4a146102c3576100ea565b806370a08231146101ef5780638da5cb5b1461021f578063a22cb4651461023d576100ea565b8063147944ed116100c8578063147944ed1461016b57806323b872dd1461018757806342842e0e146101a35780636352211e146101bf576100ea565b806301ffc9a7146100ef578063081812fc1461011f578063095ea7b31461014f575b600080fd5b6101096004803603610104919081019061190b565b6102df565b60405161011691906121cf565b60405180910390f35b6101396004803603610134919081019061195d565b610346565b6040516101469190612146565b60405180910390f35b610169600480360361016491908101906118cf565b6103cb565b005b61018560048036036101809190810190611a38565b610578565b005b6101a1600480360361019c91908101906117c9565b6105f9565b005b6101bd60048036036101b891908101906117c9565b610652565b005b6101d960048036036101d4919081019061195d565b610672565b6040516101e69190612146565b60405180910390f35b61020960048036036102049190810190611764565b610724565b60405161021691906123ac565b60405180910390f35b6102276107e3565b6040516102349190612146565b60405180910390f35b61025760048036036102529190810190611893565b610809565b005b610273600480360361026e9190810190611818565b610975565b005b61027d6109d1565b60405161028a91906121ad565b60405180910390f35b6102ad60048036036102a8919081019061178d565b610aa3565b6040516102ba91906121cf565b60405180910390f35b6102dd60048036036102d89190810190611986565b610b37565b005b6000806000837bffffffffffffffffffffffffffffffffffffffffffffffffffffffff19167bffffffffffffffffffffffffffffffffffffffffffffffffffffffff1916815260200190815260200160002060009054906101000a900460ff169050919050565b600061035182610c9a565b610390576040517f08c379a00000000000000000000000000000000000000000000000000000000081526004016103879061232c565b60405180910390fd5b6002600083815260200190815260200160002060009054906101000a900473ffffffffffffffffffffffffffffffffffffffff169050919050565b60006103d682610672565b90508073ffffffffffffffffffffffffffffffffffffffff168373ffffffffffffffffffffffffffffffffffffffff161415610447576040517f08c379a000000000000000000000000000000000000000000000000000000000815260040161043e9061222c565b60405180910390fd5b8073ffffffffffffffffffffffffffffffffffffffff163373ffffffffffffffffffffffffffffffffffffffff16148061048757506104868133610aa3565b5b6104c6576040517f08c379a00000000000000000000000000000000000000000000000000000000081526004016104bd9061234c565b60405180910390fd5b826002600084815260200190815260200160002060006101000a81548173ffffffffffffffffffffffffffffffffffffffff021916908373ffffffffffffffffffffffffffffffffffffffff160217905550818373ffffffffffffffffffffffffffffffffffffffff168273ffffffffffffffffffffffffffffffffffffffff167f8c5be1e5ebec7d5bd14f71427d1e84f3dd0314c0f7b2291e5b200ac8c7c3b92560405160405180910390a4505050565b3373ffffffffffffffffffffffffffffffffffffffff16600660009054906101000a900473ffffffffffffffffffffffffffffffffffffffff1673ffffffffffffffffffffffffffffffffffffffff16146105d257600080fd5b80600583815481106105e057fe5b9060005260206000209060070201600601819055505050565b6106033382610d0c565b610642576040517f08c379a0000000000000000000000000000000000000000000000000000000008152600401610639906122ac565b60405180910390fd5b61064d838383610dea565b505050565b61066d83838360405180602001604052806000815250610975565b505050565b6000806001600084815260200190815260200160002060009054906101000a900473ffffffffffffffffffffffffffffffffffffffff169050600073ffffffffffffffffffffffffffffffffffffffff168173ffffffffffffffffffffffffffffffffffffffff16141561071b576040517f08c379a00000000000000000000000000000000000000000000000000000000081526004016107129061226c565b60405180910390fd5b80915050919050565b60008073ffffffffffffffffffffffffffffffffffffffff168273ffffffffffffffffffffffffffffffffffffffff161415610795576040517f08c379a000000000000000000000000000000000000000000000000000000000815260040161078c906122ec565b60405180910390fd5b6107dc600360008473ffffffffffffffffffffffffffffffffffffffff1673ffffffffffffffffffffffffffffffffffffffff168152602001908152602001600020611019565b9050919050565b600660009054906101000a900473ffffffffffffffffffffffffffffffffffffffff1681565b3373ffffffffffffffffffffffffffffffffffffffff168273ffffffffffffffffffffffffffffffffffffffff161415610878576040517f08c379a000000000000000000000000000000000000000000000000000000000815260040161086f9061228c565b60405180910390fd5b80600460003373ffffffffffffffffffffffffffffffffffffffff1673ffffffffffffffffffffffffffffffffffffffff16815260200190815260200160002060008473ffffffffffffffffffffffffffffffffffffffff1673ffffffffffffffffffffffffffffffffffffffff16815260200190815260200160002060006101000a81548160ff0219169083151502179055508173ffffffffffffffffffffffffffffffffffffffff163373ffffffffffffffffffffffffffffffffffffffff167f17307eab39ab6107e8899845ad3d59bd9653f200f220920489ca2b5937696c318360405161096991906121cf565b60405180910390a35050565b6109808484846105f9565b61098c84848484611027565b6109cb576040517f08c379a00000000000000000000000000000000000000000000000000000000081526004016109c2906122cc565b60405180910390fd5b50505050565b60606005805480602002602001604051908101604052809291908181526020016000905b82821015610a9a57838290600052602060002090600702016040518061010001604052908160008201548152602001600182015481526020016002820154815260200160038201548152602001600482015481526020016005820160009054906101000a900460ff161515151581526020016005820160019054906101000a900460ff16151515158152602001600682015481525050815260200190600101906109f5565b50505050905090565b6000600460008473ffffffffffffffffffffffffffffffffffffffff1673ffffffffffffffffffffffffffffffffffffffff16815260200190815260200160002060008373ffffffffffffffffffffffffffffffffffffffff1673ffffffffffffffffffffffffffffffffffffffff16815260200190815260200160002060009054906101000a900460ff16905092915050565b3373ffffffffffffffffffffffffffffffffffffffff16600660009054906101000a900473ffffffffffffffffffffffffffffffffffffffff1673ffffffffffffffffffffffffffffffffffffffff1614610b9157600080fd5b6000600580549050905060056040518061010001604052808b81526020018a8152602001898152602001888152602001878152602001861515815260200185151581526020018481525090806001815401808255809150509060018203906000526020600020906007020160009091929091909150600082015181600001556020820151816001015560408201518160020155606082015181600301556080820151816004015560a08201518160050160006101000a81548160ff02191690831515021790555060c08201518160050160016101000a81548160ff02191690831515021790555060e08201518160060155505050610c8f3382611331565b505050505050505050565b6000806001600084815260200190815260200160002060009054906101000a900473ffffffffffffffffffffffffffffffffffffffff169050600073ffffffffffffffffffffffffffffffffffffffff168173ffffffffffffffffffffffffffffffffffffffff161415915050919050565b6000610d1782610c9a565b610d56576040517f08c379a0000000000000000000000000000000000000000000000000000000008152600401610d4d9061238c565b60405180910390fd5b6000610d6183610672565b90508073ffffffffffffffffffffffffffffffffffffffff168473ffffffffffffffffffffffffffffffffffffffff161480610dd057508373ffffffffffffffffffffffffffffffffffffffff16610db884610346565b73ffffffffffffffffffffffffffffffffffffffff16145b80610de15750610de08185610aa3565b5b91505092915050565b8273ffffffffffffffffffffffffffffffffffffffff16610e0a82610672565b73ffffffffffffffffffffffffffffffffffffffff1614610e60576040517f08c379a0000000000000000000000000000000000000000000000000000000008152600401610e579061230c565b60405180910390fd5b600073ffffffffffffffffffffffffffffffffffffffff168273ffffffffffffffffffffffffffffffffffffffff161415610ed0576040517f08c379a0000000000000000000000000000000000000000000000000000000008152600401610ec79061220c565b60405180910390fd5b610ed9816114e3565b610f20600360008573ffffffffffffffffffffffffffffffffffffffff1673ffffffffffffffffffffffffffffffffffffffff1681526020019081526020016000206115a1565b610f67600360008473ffffffffffffffffffffffffffffffffffffffff1673ffffffffffffffffffffffffffffffffffffffff1681526020019081526020016000206115c4565b816001600083815260200190815260200160002060006101000a81548173ffffffffffffffffffffffffffffffffffffffff021916908373ffffffffffffffffffffffffffffffffffffffff160217905550808273ffffffffffffffffffffffffffffffffffffffff168473ffffffffffffffffffffffffffffffffffffffff167fddf252ad1be2c89b69c2b068fc378daa952ba7f163c4a11628f55a4df523b3ef60405160405180910390a4505050565b600081600001549050919050565b600080606061104b8673ffffffffffffffffffffffffffffffffffffffff166115da565b61105a57600192505050611329565b8573ffffffffffffffffffffffffffffffffffffffff1663150b7a0260e01b338988886040516024016110909493929190612161565b604051602081830303815290604052907bffffffffffffffffffffffffffffffffffffffffffffffffffffffff19166020820180517bffffffffffffffffffffffffffffffffffffffffffffffffffffffff83818316178352505050506040516110fa919061212f565b6000604051808303816000865af19150503d8060008114611137576040519150601f19603f3d011682016040523d82523d6000602084013e61113c565b606091505b50809250819350505060008151141580156111ae575063150b7a0260e01b7bffffffffffffffffffffffffffffffffffffffffffffffffffffffff19168180602001905161118d9190810190611934565b7bffffffffffffffffffffffffffffffffffffffffffffffffffffffff1916145b156111be57600192505050611329565b8573ffffffffffffffffffffffffffffffffffffffff16636745782b60e01b338988886040516024016111f49493929190612161565b604051602081830303815290604052907bffffffffffffffffffffffffffffffffffffffffffffffffffffffff19166020820180517bffffffffffffffffffffffffffffffffffffffffffffffffffffffff838183161783525050505060405161125e919061212f565b6000604051808303816000865af19150503d806000811461129b576040519150601f19603f3d011682016040523d82523d6000602084013e6112a0565b606091505b50809250819350505060008151141580156113125750636745782b60e01b7bffffffffffffffffffffffffffffffffffffffffffffffffffffffff1916818060200190516112f19190810190611934565b7bffffffffffffffffffffffffffffffffffffffffffffffffffffffff1916145b1561132257600192505050611329565b6000925050505b949350505050565b600073ffffffffffffffffffffffffffffffffffffffff168273ffffffffffffffffffffffffffffffffffffffff1614156113a1576040517f08c379a00000000000000000000000000000000000000000000000000000000081526004016113989061224c565b60405180910390fd5b6113aa81610c9a565b156113ea576040517f08c379a00000000000000000000000000000000000000000000000000000000081526004016113e19061236c565b60405180910390fd5b816001600083815260200190815260200160002060006101000a81548173ffffffffffffffffffffffffffffffffffffffff021916908373ffffffffffffffffffffffffffffffffffffffff160217905550611483600360008473ffffffffffffffffffffffffffffffffffffffff1673ffffffffffffffffffffffffffffffffffffffff1681526020019081526020016000206115c4565b808273ffffffffffffffffffffffffffffffffffffffff16600073ffffffffffffffffffffffffffffffffffffffff167fddf252ad1be2c89b69c2b068fc378daa952ba7f163c4a11628f55a4df523b3ef60405160405180910390a45050565b600073ffffffffffffffffffffffffffffffffffffffff166002600083815260200190815260200160002060009054906101000a900473ffffffffffffffffffffffffffffffffffffffff1673ffffffffffffffffffffffffffffffffffffffff161461159e5760006002600083815260200190815260200160002060006101000a81548173ffffffffffffffffffffffffffffffffffffffff021916908373ffffffffffffffffffffffffffffffffffffffff1602179055505b50565b6115b9600182600001546115ed90919063ffffffff16565b816000018190555050565b6001816000016000828254019250508190555050565b600080823b905060008111915050919050565b600061162f83836040518060400160405280601e81526020017f536166654d6174683a207375627472616374696f6e206f766572666c6f770000815250611637565b905092915050565b600083831115829061167f576040517f08c379a000000000000000000000000000000000000000000000000000000000815260040161167691906121ea565b60405180910390fd5b5060008385039050809150509392505050565b6000813590506116a18161257f565b92915050565b6000813590506116b681612596565b92915050565b6000813590506116cb816125ad565b92915050565b6000813590506116e0816125c4565b92915050565b6000815190506116f5816125c4565b92915050565b600082601f83011261170c57600080fd5b813561171f61171a826123f4565b6123c7565b9150808252602083016020830185838301111561173b57600080fd5b61174683828461252c565b50505092915050565b60008135905061175e816125db565b92915050565b60006020828403121561177657600080fd5b600061178484828501611692565b91505092915050565b600080604083850312156117a057600080fd5b60006117ae85828601611692565b92505060206117bf85828601611692565b9150509250929050565b6000806000606084860312156117de57600080fd5b60006117ec86828701611692565b93505060206117fd86828701611692565b925050604061180e8682870161174f565b9150509250925092565b6000806000806080858703121561182e57600080fd5b600061183c87828801611692565b945050602061184d87828801611692565b935050604061185e8782880161174f565b925050606085013567ffffffffffffffff81111561187b57600080fd5b611887878288016116fb565b91505092959194509250565b600080604083850312156118a657600080fd5b60006118b485828601611692565b92505060206118c5858286016116a7565b9150509250929050565b600080604083850312156118e257600080fd5b60006118f085828601611692565b92505060206119018582860161174f565b9150509250929050565b60006020828403121561191d57600080fd5b600061192b848285016116d1565b91505092915050565b60006020828403121561194657600080fd5b6000611954848285016116e6565b91505092915050565b60006020828403121561196f57600080fd5b600061197d8482850161174f565b91505092915050565b600080600080600080600080610100898b0312156119a357600080fd5b60006119b18b828c0161174f565b98505060206119c28b828c016116bc565b97505060406119d38b828c016116bc565b96505060606119e48b828c016116bc565b95505060806119f58b828c016116bc565b94505060a0611a068b828c016116a7565b93505060c0611a178b828c016116a7565b92505060e0611a288b828c0161174f565b9150509295985092959890939650565b60008060408385031215611a4b57600080fd5b6000611a598582860161174f565b9250506020611a6a8582860161174f565b9150509250929050565b6000611a80838361206f565b6101008301905092915050565b611a96816124ae565b82525050565b611aa58161249c565b82525050565b6000611ab682612430565b611ac0818561245e565b9350611acb83612420565b8060005b83811015611afc578151611ae38882611a74565b9750611aee83612451565b925050600181019050611acf565b5085935050505092915050565b611b12816124c0565b82525050565b611b21816124c0565b82525050565b611b30816124cc565b82525050565b6000611b418261243b565b611b4b818561246f565b9350611b5b81856020860161253b565b611b648161256e565b840191505092915050565b6000611b7a8261243b565b611b848185612480565b9350611b9481856020860161253b565b80840191505092915050565b6000611bab82612446565b611bb5818561248b565b9350611bc581856020860161253b565b611bce8161256e565b840191505092915050565b6000611be660238361248b565b91507f4b495031373a207472616e7366657220746f20746865207a65726f206164647260008301527f65737300000000000000000000000000000000000000000000000000000000006020830152604082019050919050565b6000611c4c60208361248b565b91507f4b495031373a20617070726f76616c20746f2063757272656e74206f776e65726000830152602082019050919050565b6000611c8c601f8361248b565b91507f4b495031373a206d696e7420746f20746865207a65726f2061646472657373006000830152602082019050919050565b6000611ccc60288361248b565b91507f4b495031373a206f776e657220717565727920666f72206e6f6e65786973746560008301527f6e7420746f6b656e0000000000000000000000000000000000000000000000006020830152604082019050919050565b6000611d3260188361248b565b91507f4b495031373a20617070726f766520746f2063616c6c657200000000000000006000830152602082019050919050565b6000611d7260308361248b565b91507f4b495031373a207472616e736665722063616c6c6572206973206e6f74206f7760008301527f6e6572206e6f7220617070726f766564000000000000000000000000000000006020830152604082019050919050565b6000611dd860308361248b565b91507f4b495031373a207472616e7366657220746f206e6f6e204b495031375265636560008301527f6976657220696d706c656d656e746572000000000000000000000000000000006020830152604082019050919050565b6000611e3e60298361248b565b91507f4b495031373a2062616c616e636520717565727920666f7220746865207a657260008301527f6f206164647265737300000000000000000000000000000000000000000000006020830152604082019050919050565b6000611ea460288361248b565b91507f4b495031373a207472616e73666572206f6620746f6b656e207468617420697360008301527f206e6f74206f776e0000000000000000000000000000000000000000000000006020830152604082019050919050565b6000611f0a602b8361248b565b91507f4b495031373a20617070726f76656420717565727920666f72206e6f6e65786960008301527f7374656e7420746f6b656e0000000000000000000000000000000000000000006020830152604082019050919050565b6000611f7060378361248b565b91507f4b495031373a20617070726f76652063616c6c6572206973206e6f74206f776e60008301527f6572206e6f7220617070726f76656420666f7220616c6c0000000000000000006020830152604082019050919050565b6000611fd6601b8361248b565b91507f4b495031373a20746f6b656e20616c7265616479206d696e74656400000000006000830152602082019050919050565b6000612016602b8361248b565b91507f4b495031373a206f70657261746f7220717565727920666f72206e6f6e65786960008301527f7374656e7420746f6b656e0000000000000000000000000000000000000000006020830152604082019050919050565b610100820160008201516120866000850182612111565b5060208201516120996020850182611b27565b5060408201516120ac6040850182611b27565b5060608201516120bf6060850182611b27565b5060808201516120d26080850182611b27565b5060a08201516120e560a0850182611b09565b5060c08201516120f860c0850182611b09565b5060e082015161210b60e0850182612111565b50505050565b61211a81612522565b82525050565b61212981612522565b82525050565b600061213b8284611b6f565b915081905092915050565b600060208201905061215b6000830184611a9c565b92915050565b60006080820190506121766000830187611a8d565b6121836020830186611a9c565b6121906040830185612120565b81810360608301526121a28184611b36565b905095945050505050565b600060208201905081810360008301526121c78184611aab565b905092915050565b60006020820190506121e46000830184611b18565b92915050565b600060208201905081810360008301526122048184611ba0565b905092915050565b6000602082019050818103600083015261222581611bd9565b9050919050565b6000602082019050818103600083015261224581611c3f565b9050919050565b6000602082019050818103600083015261226581611c7f565b9050919050565b6000602082019050818103600083015261228581611cbf565b9050919050565b600060208201905081810360008301526122a581611d25565b9050919050565b600060208201905081810360008301526122c581611d65565b9050919050565b600060208201905081810360008301526122e581611dcb565b9050919050565b6000602082019050818103600083015261230581611e31565b9050919050565b6000602082019050818103600083015261232581611e97565b9050919050565b6000602082019050818103600083015261234581611efd565b9050919050565b6000602082019050818103600083015261236581611f63565b9050919050565b6000602082019050818103600083015261238581611fc9565b9050919050565b600060208201905081810360008301526123a581612009565b9050919050565b60006020820190506123c16000830184612120565b92915050565b6000604051905081810181811067ffffffffffffffff821117156123ea57600080fd5b8060405250919050565b600067ffffffffffffffff82111561240b57600080fd5b601f19601f8301169050602081019050919050565b6000819050602082019050919050565b600081519050919050565b600081519050919050565b600081519050919050565b6000602082019050919050565b600082825260208201905092915050565b600082825260208201905092915050565b600081905092915050565b600082825260208201905092915050565b60006124a782612502565b9050919050565b60006124b982612502565b9050919050565b60008115159050919050565b6000819050919050565b60007fffffffff0000000000000000000000000000000000000000000000000000000082169050919050565b600073ffffffffffffffffffffffffffffffffffffffff82169050919050565b6000819050919050565b82818337600083830152505050565b60005b8381101561255957808201518184015260208101905061253e565b83811115612568576000848401525b50505050565b6000601f19601f8301169050919050565b6125888161249c565b811461259357600080fd5b50565b61259f816124c0565b81146125aa57600080fd5b50565b6125b6816124cc565b81146125c157600080fd5b50565b6125cd816124d6565b81146125d857600080fd5b50565b6125e481612522565b81146125ef57600080fd5b5056fea365627a7a723158203fa4df5f9bd9480755f67b8c7ea0e609acd91958d461d589654239ca74b6779b6c6578706572696d656e74616cf564736f6c63430005100040",
  "source": "// SPDX-License-Identifier: MIT\npragma solidity >=0.4.22 <0.9.0;\npragma experimental ABIEncoderV2;\n\nimport \"@klaytn/contracts/token/KIP17/KIP17.sol\";\n\ncontract Logic is KIP17 {\n    \n    struct ProductInfo {\n    uint256 nfcId;\n    bytes32 brandId;\n    bytes32 productId;\n    bytes32 editionId;\n    bytes32 manufactureDate;\n    bool isLimited;\n    bool isAppeared;\n    uint256 ownerId;\n    }\n\n    ProductInfo[] products;\n    address public owner;\n\n    constructor() public {\n        owner  = msg.sender;\n    }   \n\n    modifier isOwner() {\n        require(owner == msg.sender);\n        _;\n    }\n\n    function registerProductInfo(\n        uint256 nfcId,\n        bytes32 brandId,\n        bytes32 productId,\n        bytes32 editionId,\n        bytes32 manufactureDate,\n        bool isLimited,\n        bool isAppeared,\n        uint256 ownerId\n    ) public isOwner() {\n        uint256 tokenId = products.length;\n        products.push(\n            ProductInfo(nfcId, brandId, productId, editionId, manufactureDate, isLimited, isAppeared, ownerId)\n        );\n        _mint(msg.sender, tokenId);\n    }\n\n    function allProductInfo() public view returns(ProductInfo[] memory) {\n        return products;\n    }\n\n    function changeOwnership(\n        uint256 _number,\n        uint256 new_ownerId\n    ) public isOwner() {\n        products[_number].ownerId = new_ownerId;\n    }\n\n}",
  "sourcePath": "/root/Project/Ast/contracts/Logic.sol",
  "compiler": {
    "name": "solc",
    "version": "0.5.16+commit.9c3226ce.Emscripten.clang"
  },
  "schemaVersion": "3.4.1",
  "updatedAt": "2021-07-20T10:32:16.503Z",
  "networkType": "ethereum",
  "devdoc": {
    "methods": {
      "approve(address,uint256)": {
        "details": "Approves another address to transfer the given token ID The zero address indicates there is no approved address. There can only be one approved address per token at a given time. Can only be called by the token owner or an approved operator.",
        "params": {
          "to": "address to be approved for the given token ID",
          "tokenId": "uint256 ID of the token to be approved"
        }
      },
      "balanceOf(address)": {
        "details": "Gets the balance of the specified address.",
        "params": {
          "owner": "address to query the balance of"
        },
        "return": "uint256 representing the amount owned by the passed address"
      },
      "getApproved(uint256)": {
        "details": "Gets the approved address for a token ID, or zero if no address set Reverts if the token ID does not exist.",
        "params": {
          "tokenId": "uint256 ID of the token to query the approval of"
        },
        "return": "address currently approved for the given token ID"
      },
      "isApprovedForAll(address,address)": {
        "details": "Tells whether an operator is approved by a given owner.",
        "params": {
          "operator": "operator address which you want to query the approval of",
          "owner": "owner address which you want to query the approval of"
        },
        "return": "bool whether the given operator is approved by the given owner"
      },
      "ownerOf(uint256)": {
        "details": "Gets the owner of the specified token ID.",
        "params": {
          "tokenId": "uint256 ID of the token to query the owner of"
        },
        "return": "address currently marked as the owner of the given token ID"
      },
      "safeTransferFrom(address,address,uint256)": {
        "details": "Safely transfers the ownership of a given token ID to another address If the target address is a contract, it must implement `onKIP17Received`, which is called upon a safe transfer, and return the magic value `bytes4(keccak256(\"onKIP17Received(address,address,uint256,bytes)\"))`; otherwise, the transfer is reverted. Requires the msg.sender to be the owner, approved, or operator",
        "params": {
          "from": "current owner of the token",
          "to": "address to receive the ownership of the given token ID",
          "tokenId": "uint256 ID of the token to be transferred"
        }
      },
      "safeTransferFrom(address,address,uint256,bytes)": {
        "details": "Safely transfers the ownership of a given token ID to another address If the target address is a contract, it must implement `onKIP17Received`, which is called upon a safe transfer, and return the magic value `bytes4(keccak256(\"onKIP17Received(address,address,uint256,bytes)\"))`; otherwise, the transfer is reverted. Requires the msg.sender to be the owner, approved, or operator",
        "params": {
          "_data": "bytes data to send along with a safe transfer check",
          "from": "current owner of the token",
          "to": "address to receive the ownership of the given token ID",
          "tokenId": "uint256 ID of the token to be transferred"
        }
      },
      "setApprovalForAll(address,bool)": {
        "details": "Sets or unsets the approval of a given operator An operator is allowed to transfer all tokens of the sender on their behalf.",
        "params": {
          "approved": "representing the status of the approval to be set",
          "to": "operator address to set the approval"
        }
      },
      "supportsInterface(bytes4)": {
        "details": "See `IKIP13.supportsInterface`.     * Time complexity O(1), guaranteed to always use less than 30 000 gas."
      },
      "transferFrom(address,address,uint256)": {
        "details": "Transfers the ownership of a given token ID to another address. Usage of this method is discouraged, use `safeTransferFrom` whenever possible. Requires the msg.sender to be the owner, approved, or operator.",
        "params": {
          "from": "current owner of the token",
          "to": "address to receive the ownership of the given token ID",
          "tokenId": "uint256 ID of the token to be transferred"
        }
      }
    }
  },
  "userdoc": {
    "methods": {}
  }
}